{
  "_format": "hh-sol-artifact-1",
  "contractName": "RENTit",
  "sourceName": "contracts/RENTit.sol",
  "abi": [
    {
      "anonymous": false,
      "inputs": [
        {
          "indexed": true,
          "internalType": "address",
          "name": "previousOwner",
          "type": "address"
        },
        {
          "indexed": true,
          "internalType": "address",
          "name": "newOwner",
          "type": "address"
        }
      ],
      "name": "OwnershipTransferred",
      "type": "event"
    },
    {
      "inputs": [
        {
          "internalType": "uint256",
          "name": "_index",
          "type": "uint256"
        }
      ],
      "name": "buy",
      "outputs": [],
      "stateMutability": "payable",
      "type": "function"
    },
    {
      "inputs": [
        {
          "internalType": "uint256",
          "name": "_index",
          "type": "uint256"
        }
      ],
      "name": "endRent",
      "outputs": [],
      "stateMutability": "nonpayable",
      "type": "function"
    },
    {
      "inputs": [],
      "name": "getNftCount",
      "outputs": [
        {
          "internalType": "uint256",
          "name": "",
          "type": "uint256"
        }
      ],
      "stateMutability": "view",
      "type": "function"
    },
    {
      "inputs": [
        {
          "internalType": "uint256",
          "name": "_index",
          "type": "uint256"
        }
      ],
      "name": "getNfts",
      "outputs": [
        {
          "components": [
            {
              "internalType": "uint256",
              "name": "tokenId",
              "type": "uint256"
            },
            {
              "internalType": "contract IERC721",
              "name": "nftAddress",
              "type": "address"
            },
            {
              "internalType": "address payable",
              "name": "owner",
              "type": "address"
            },
            {
              "internalType": "address",
              "name": "user",
              "type": "address"
            },
            {
              "internalType": "uint256",
              "name": "rentPrice",
              "type": "uint256"
            },
            {
              "internalType": "uint256",
              "name": "buyPrice",
              "type": "uint256"
            },
            {
              "internalType": "bool",
              "name": "forSale",
              "type": "bool"
            },
            {
              "internalType": "bool",
              "name": "forRent",
              "type": "bool"
            },
            {
              "internalType": "bool",
              "name": "isRented",
              "type": "bool"
            },
            {
              "internalType": "uint256",
              "name": "timeUnit",
              "type": "uint256"
            },
            {
              "internalType": "uint256",
              "name": "expires",
              "type": "uint256"
            }
          ],
          "internalType": "struct RENTit.NftDetails",
          "name": "",
          "type": "tuple"
        }
      ],
      "stateMutability": "view",
      "type": "function"
    },
    {
      "inputs": [
        {
          "internalType": "contract IERC721",
          "name": "_nft",
          "type": "address"
        },
        {
          "internalType": "uint256",
          "name": "_tokenId",
          "type": "uint256"
        }
      ],
      "name": "list",
      "outputs": [],
      "stateMutability": "nonpayable",
      "type": "function"
    },
    {
      "inputs": [],
      "name": "listOfNft",
      "outputs": [
        {
          "internalType": "uint256",
          "name": "",
          "type": "uint256"
        }
      ],
      "stateMutability": "view",
      "type": "function"
    },
    {
      "inputs": [
        {
          "internalType": "uint256",
          "name": "",
          "type": "uint256"
        }
      ],
      "name": "nftDetail",
      "outputs": [
        {
          "internalType": "uint256",
          "name": "tokenId",
          "type": "uint256"
        },
        {
          "internalType": "contract IERC721",
          "name": "nftAddress",
          "type": "address"
        },
        {
          "internalType": "address payable",
          "name": "owner",
          "type": "address"
        },
        {
          "internalType": "address",
          "name": "user",
          "type": "address"
        },
        {
          "internalType": "uint256",
          "name": "rentPrice",
          "type": "uint256"
        },
        {
          "internalType": "uint256",
          "name": "buyPrice",
          "type": "uint256"
        },
        {
          "internalType": "bool",
          "name": "forSale",
          "type": "bool"
        },
        {
          "internalType": "bool",
          "name": "forRent",
          "type": "bool"
        },
        {
          "internalType": "bool",
          "name": "isRented",
          "type": "bool"
        },
        {
          "internalType": "uint256",
          "name": "timeUnit",
          "type": "uint256"
        },
        {
          "internalType": "uint256",
          "name": "expires",
          "type": "uint256"
        }
      ],
      "stateMutability": "view",
      "type": "function"
    },
    {
      "inputs": [],
      "name": "owner",
      "outputs": [
        {
          "internalType": "address",
          "name": "",
          "type": "address"
        }
      ],
      "stateMutability": "view",
      "type": "function"
    },
    {
      "inputs": [],
      "name": "renounceOwnership",
      "outputs": [],
      "stateMutability": "nonpayable",
      "type": "function"
    },
    {
      "inputs": [
        {
          "internalType": "uint256",
          "name": "_index",
          "type": "uint256"
        },
        {
          "internalType": "uint256",
          "name": "_duration",
          "type": "uint256"
        }
      ],
      "name": "rent",
      "outputs": [],
      "stateMutability": "payable",
      "type": "function"
    },
    {
      "inputs": [
        {
          "internalType": "uint256",
          "name": "_index",
          "type": "uint256"
        },
        {
          "internalType": "uint256",
          "name": "_price",
          "type": "uint256"
        }
      ],
      "name": "setBuyPrice",
      "outputs": [],
      "stateMutability": "nonpayable",
      "type": "function"
    },
    {
      "inputs": [
        {
          "internalType": "uint256",
          "name": "_index",
          "type": "uint256"
        },
        {
          "internalType": "uint256",
          "name": "_price",
          "type": "uint256"
        }
      ],
      "name": "setRentPrice",
      "outputs": [],
      "stateMutability": "nonpayable",
      "type": "function"
    },
    {
      "inputs": [
        {
          "internalType": "uint256",
          "name": "_index",
          "type": "uint256"
        }
      ],
      "name": "toggleForRent",
      "outputs": [],
      "stateMutability": "nonpayable",
      "type": "function"
    },
    {
      "inputs": [
        {
          "internalType": "uint256",
          "name": "_index",
          "type": "uint256"
        }
      ],
      "name": "toggleForSale",
      "outputs": [],
      "stateMutability": "nonpayable",
      "type": "function"
    },
    {
      "inputs": [
        {
          "internalType": "address",
          "name": "newOwner",
          "type": "address"
        }
      ],
      "name": "transferOwnership",
      "outputs": [],
      "stateMutability": "nonpayable",
      "type": "function"
    },
    {
      "inputs": [],
      "name": "withdraw",
      "outputs": [],
      "stateMutability": "nonpayable",
      "type": "function"
    }
  ],
  "bytecode": "0x608060405230600160006101000a81548173ffffffffffffffffffffffffffffffffffffffff021916908373ffffffffffffffffffffffffffffffffffffffff160217905550600060025534801561005657600080fd5b5061007361006861007860201b60201c565b61008060201b60201c565b610144565b600033905090565b60008060009054906101000a900473ffffffffffffffffffffffffffffffffffffffff169050816000806101000a81548173ffffffffffffffffffffffffffffffffffffffff021916908373ffffffffffffffffffffffffffffffffffffffff1602179055508173ffffffffffffffffffffffffffffffffffffffff168173ffffffffffffffffffffffffffffffffffffffff167f8be0079c531659141344cd1fd0a4f28419497f9722a3daafe3b4186f6b6457e060405160405180910390a35050565b61234d80620001546000396000f3fe6080604052600436106100f35760003560e01c8063783a112b1161008a578063a32018b911610059578063a32018b9146102eb578063d96a094a14610314578063e93f3f8d14610330578063f2fde38b14610359576100f3565b8063783a112b14610252578063797c53591461026e5780638da5cb5b1461029757806399fbf3a2146102c2576100f3565b806360b6014e116100c657806360b6014e146101bc578063692f1d12146101e7578063715018a61461021257806377c6212b14610229576100f3565b80630a5965b1146100f85780633ccfd60b146101215780633dcca041146101385780634a0fbf6e14610175575b600080fd5b34801561010457600080fd5b5061011f600480360381019061011a9190611834565b610382565b005b34801561012d57600080fd5b50610136610493565b005b34801561014457600080fd5b5061015f600480360381019061015a9190611834565b6105c4565b60405161016c9190611e01565b60405180910390f35b34801561018157600080fd5b5061019c60048036038101906101979190611834565b610777565b6040516101b39b9a99989796959493929190611e38565b60405180910390f35b3480156101c857600080fd5b506101d1610858565b6040516101de9190611e1d565b60405180910390f35b3480156101f357600080fd5b506101fc61085e565b6040516102099190611e1d565b60405180910390f35b34801561021e57600080fd5b50610227610868565b005b34801561023557600080fd5b50610250600480360381019061024b91906117f8565b6108f0565b005b61026c6004803603810190610267919061185d565b610b7f565b005b34801561027a57600080fd5b5061029560048036038101906102909190611834565b610d80565b005b3480156102a357600080fd5b506102ac610f4f565b6040516102b99190611c0f565b60405180910390f35b3480156102ce57600080fd5b506102e960048036038101906102e4919061185d565b610f78565b005b3480156102f757600080fd5b50610312600480360381019061030d9190611834565b611050565b005b61032e60048036038101906103299190611834565b611150565b005b34801561033c57600080fd5b506103576004803603810190610352919061185d565b611452565b005b34801561036557600080fd5b50610380600480360381019061037b91906117cf565b61152a565b005b803373ffffffffffffffffffffffffffffffffffffffff166003600083815260200190815260200160002060020160009054906101000a900473ffffffffffffffffffffffffffffffffffffffff1673ffffffffffffffffffffffffffffffffffffffff16146103f157600080fd5b6000600360008481526020019081526020016000209050600015158160060160029054906101000a900460ff16151514610460576040517f08c379a000000000000000000000000000000000000000000000000000000000815260040161045790611ce1565b60405180910390fd5b8060060160019054906101000a900460ff16158160060160016101000a81548160ff021916908315150217905550505050565b61049b611622565b73ffffffffffffffffffffffffffffffffffffffff166104b9610f4f565b73ffffffffffffffffffffffffffffffffffffffff161461050f576040517f08c379a000000000000000000000000000000000000000000000000000000000815260040161050690611d41565b60405180910390fd5b600047905060003373ffffffffffffffffffffffffffffffffffffffff168260405161053a90611bfa565b60006040518083038185875af1925050503d8060008114610577576040519150601f19603f3d011682016040523d82523d6000602084013e61057c565b606091505b50509050806105c0576040517f08c379a00000000000000000000000000000000000000000000000000000000081526004016105b790611cc1565b60405180910390fd5b5050565b6105cc6116ee565b6003600083815260200190815260200160002060405180610160016040529081600082015481526020016001820160009054906101000a900473ffffffffffffffffffffffffffffffffffffffff1673ffffffffffffffffffffffffffffffffffffffff1673ffffffffffffffffffffffffffffffffffffffff1681526020016002820160009054906101000a900473ffffffffffffffffffffffffffffffffffffffff1673ffffffffffffffffffffffffffffffffffffffff1673ffffffffffffffffffffffffffffffffffffffff1681526020016003820160009054906101000a900473ffffffffffffffffffffffffffffffffffffffff1673ffffffffffffffffffffffffffffffffffffffff1673ffffffffffffffffffffffffffffffffffffffff16815260200160048201548152602001600582015481526020016006820160009054906101000a900460ff161515151581526020016006820160019054906101000a900460ff161515151581526020016006820160029054906101000a900460ff16151515158152602001600782015481526020016008820154815250509050919050565b60036020528060005260406000206000915090508060000154908060010160009054906101000a900473ffffffffffffffffffffffffffffffffffffffff16908060020160009054906101000a900473ffffffffffffffffffffffffffffffffffffffff16908060030160009054906101000a900473ffffffffffffffffffffffffffffffffffffffff16908060040154908060050154908060060160009054906101000a900460ff16908060060160019054906101000a900460ff16908060060160029054906101000a900460ff1690806007015490806008015490508b565b60025481565b6000600254905090565b610870611622565b73ffffffffffffffffffffffffffffffffffffffff1661088e610f4f565b73ffffffffffffffffffffffffffffffffffffffff16146108e4576040517f08c379a00000000000000000000000000000000000000000000000000000000081526004016108db90611d41565b60405180910390fd5b6108ee600061162a565b565b8173ffffffffffffffffffffffffffffffffffffffff166323b872dd3330846040518463ffffffff1660e01b815260040161092d93929190611c2a565b600060405180830381600087803b15801561094757600080fd5b505af115801561095b573d6000803e3d6000fd5b505050506040518061016001604052808281526020018373ffffffffffffffffffffffffffffffffffffffff1681526020013373ffffffffffffffffffffffffffffffffffffffff168152602001600073ffffffffffffffffffffffffffffffffffffffff1681526020016000815260200160008152602001600015158152602001600015158152602001600015158152602001600081526020016000815250600360008381526020019081526020016000206000820151816000015560208201518160010160006101000a81548173ffffffffffffffffffffffffffffffffffffffff021916908373ffffffffffffffffffffffffffffffffffffffff16021790555060408201518160020160006101000a81548173ffffffffffffffffffffffffffffffffffffffff021916908373ffffffffffffffffffffffffffffffffffffffff16021790555060608201518160030160006101000a81548173ffffffffffffffffffffffffffffffffffffffff021916908373ffffffffffffffffffffffffffffffffffffffff1602179055506080820151816004015560a0820151816005015560c08201518160060160006101000a81548160ff02191690831515021790555060e08201518160060160016101000a81548160ff0219169083151502179055506101008201518160060160026101000a81548160ff021916908315150217905550610120820151816007015561014082015181600801559050505050565b60006003600084815260200190815260200160002090508060020160009054906101000a900473ffffffffffffffffffffffffffffffffffffffff1673ffffffffffffffffffffffffffffffffffffffff163373ffffffffffffffffffffffffffffffffffffffff161415610c29576040517f08c379a0000000000000000000000000000000000000000000000000000000008152600401610c2090611d21565b60405180910390fd5b600115158160060160019054906101000a900460ff16151514610c81576040517f08c379a0000000000000000000000000000000000000000000000000000000008152600401610c7890611d81565b60405180910390fd5b6000828260040154610c939190611f55565b90508160020160009054906101000a900473ffffffffffffffffffffffffffffffffffffffff1673ffffffffffffffffffffffffffffffffffffffff166108fc829081150290604051600060405180830381858888f19350505050158015610cff573d6000803e3d6000fd5b50338260030160006101000a81548173ffffffffffffffffffffffffffffffffffffffff021916908373ffffffffffffffffffffffffffffffffffffffff16021790555060018260060160026101000a81548160ff02191690831515021790555060004290508381610d719190611eff565b83600801819055505050505050565b803373ffffffffffffffffffffffffffffffffffffffff166003600083815260200190815260200160002060020160009054906101000a900473ffffffffffffffffffffffffffffffffffffffff1673ffffffffffffffffffffffffffffffffffffffff1614610def57600080fd5b60006003600084815260200190815260200160002090508060030160009054906101000a900473ffffffffffffffffffffffffffffffffffffffff1673ffffffffffffffffffffffffffffffffffffffff163373ffffffffffffffffffffffffffffffffffffffff1614610e98576040517f08c379a0000000000000000000000000000000000000000000000000000000008152600401610e8f90611de1565b60405180910390fd5b8060080154421015610edf576040517f08c379a0000000000000000000000000000000000000000000000000000000008152600401610ed690611d61565b60405180910390fd5b6000816008018190555060008160030160006101000a81548173ffffffffffffffffffffffffffffffffffffffff021916908373ffffffffffffffffffffffffffffffffffffffff16021790555060008160060160026101000a81548160ff021916908315150217905550505050565b60008060009054906101000a900473ffffffffffffffffffffffffffffffffffffffff16905090565b813373ffffffffffffffffffffffffffffffffffffffff166003600083815260200190815260200160002060020160009054906101000a900473ffffffffffffffffffffffffffffffffffffffff1673ffffffffffffffffffffffffffffffffffffffff1614610fe757600080fd5b600060036000858152602001908152602001600020905060008311611041576040517f08c379a000000000000000000000000000000000000000000000000000000000815260040161103890611c61565b60405180910390fd5b82816004018190555050505050565b803373ffffffffffffffffffffffffffffffffffffffff166003600083815260200190815260200160002060020160009054906101000a900473ffffffffffffffffffffffffffffffffffffffff1673ffffffffffffffffffffffffffffffffffffffff16146110bf57600080fd5b6000600360008481526020019081526020016000209050600081600501541161111d576040517f08c379a000000000000000000000000000000000000000000000000000000000815260040161111490611c61565b60405180910390fd5b8060060160009054906101000a900460ff16158160060160006101000a81548160ff021916908315150217905550505050565b60006003600083815260200190815260200160002090508060020160009054906101000a900473ffffffffffffffffffffffffffffffffffffffff1673ffffffffffffffffffffffffffffffffffffffff163373ffffffffffffffffffffffffffffffffffffffff1614156111fa576040517f08c379a00000000000000000000000000000000000000000000000000000000081526004016111f190611da1565b60405180910390fd5b600115158160060160009054906101000a900460ff16151514611252576040517f08c379a000000000000000000000000000000000000000000000000000000000815260040161124990611d01565b60405180910390fd5b6000816005015411611299576040517f08c379a000000000000000000000000000000000000000000000000000000000815260040161129090611c81565b60405180910390fd5b6002548211156112de576040517f08c379a00000000000000000000000000000000000000000000000000000000081526004016112d590611dc1565b60405180910390fd5b8060020160009054906101000a900473ffffffffffffffffffffffffffffffffffffffff1673ffffffffffffffffffffffffffffffffffffffff166108fc82600501549081150290604051600060405180830381858888f1935050505015801561134c573d6000803e3d6000fd5b508060010160009054906101000a900473ffffffffffffffffffffffffffffffffffffffff1673ffffffffffffffffffffffffffffffffffffffff166323b872dd303384600001546040518463ffffffff1660e01b81526004016113b293929190611c2a565b600060405180830381600087803b1580156113cc57600080fd5b505af11580156113e0573d6000803e3d6000fd5b50505050338160020160006101000a81548173ffffffffffffffffffffffffffffffffffffffff021916908373ffffffffffffffffffffffffffffffffffffffff16021790555060008160060160006101000a81548160ff021916908315150217905550600081600501819055505050565b813373ffffffffffffffffffffffffffffffffffffffff166003600083815260200190815260200160002060020160009054906101000a900473ffffffffffffffffffffffffffffffffffffffff1673ffffffffffffffffffffffffffffffffffffffff16146114c157600080fd5b60006003600085815260200190815260200160002090506000831161151b576040517f08c379a000000000000000000000000000000000000000000000000000000000815260040161151290611c61565b60405180910390fd5b82816005018190555050505050565b611532611622565b73ffffffffffffffffffffffffffffffffffffffff16611550610f4f565b73ffffffffffffffffffffffffffffffffffffffff16146115a6576040517f08c379a000000000000000000000000000000000000000000000000000000000815260040161159d90611d41565b60405180910390fd5b600073ffffffffffffffffffffffffffffffffffffffff168173ffffffffffffffffffffffffffffffffffffffff161415611616576040517f08c379a000000000000000000000000000000000000000000000000000000000815260040161160d90611ca1565b60405180910390fd5b61161f8161162a565b50565b600033905090565b60008060009054906101000a900473ffffffffffffffffffffffffffffffffffffffff169050816000806101000a81548173ffffffffffffffffffffffffffffffffffffffff021916908373ffffffffffffffffffffffffffffffffffffffff1602179055508173ffffffffffffffffffffffffffffffffffffffff168173ffffffffffffffffffffffffffffffffffffffff167f8be0079c531659141344cd1fd0a4f28419497f9722a3daafe3b4186f6b6457e060405160405180910390a35050565b60405180610160016040528060008152602001600073ffffffffffffffffffffffffffffffffffffffff168152602001600073ffffffffffffffffffffffffffffffffffffffff168152602001600073ffffffffffffffffffffffffffffffffffffffff168152602001600081526020016000815260200160001515815260200160001515815260200160001515815260200160008152602001600081525090565b60008135905061179f816122d2565b92915050565b6000813590506117b4816122e9565b92915050565b6000813590506117c981612300565b92915050565b6000602082840312156117e157600080fd5b60006117ef84828501611790565b91505092915050565b6000806040838503121561180b57600080fd5b6000611819858286016117a5565b925050602061182a858286016117ba565b9150509250929050565b60006020828403121561184657600080fd5b6000611854848285016117ba565b91505092915050565b6000806040838503121561187057600080fd5b600061187e858286016117ba565b925050602061188f858286016117ba565b9150509250929050565b6118a281611fc1565b82525050565b6118b181611fc1565b82525050565b6118c081611faf565b82525050565b6118cf81611faf565b82525050565b6118de81611fd3565b82525050565b6118ed81611fd3565b82525050565b6118fc8161201b565b82525050565b61190b8161201b565b82525050565b600061191e602183611eee565b91506119298261206e565b604082019050919050565b6000611941601f83611eee565b915061194c826120bd565b602082019050919050565b6000611964602683611eee565b915061196f826120e6565b604082019050919050565b6000611987601883611eee565b915061199282612135565b602082019050919050565b60006119aa601183611eee565b91506119b58261215e565b602082019050919050565b60006119cd600c83611eee565b91506119d882612187565b602082019050919050565b60006119f0601783611eee565b91506119fb826121b0565b602082019050919050565b6000611a13602083611eee565b9150611a1e826121d9565b602082019050919050565b6000611a36601483611eee565b9150611a4182612202565b602082019050919050565b6000611a59600c83611eee565b9150611a648261222b565b602082019050919050565b6000611a7c600083611ee3565b9150611a8782612254565b600082019050919050565b6000611a9f601683611eee565b9150611aaa82612257565b602082019050919050565b6000611ac2601283611eee565b9150611acd82612280565b602082019050919050565b6000611ae5600e83611eee565b9150611af0826122a9565b602082019050919050565b61016082016000820151611b126000850182611bdc565b506020820151611b2560208501826118f3565b506040820151611b386040850182611899565b506060820151611b4b60608501826118b7565b506080820151611b5e6080850182611bdc565b5060a0820151611b7160a0850182611bdc565b5060c0820151611b8460c08501826118d5565b5060e0820151611b9760e08501826118d5565b50610100820151611bac6101008501826118d5565b50610120820151611bc1610120850182611bdc565b50610140820151611bd6610140850182611bdc565b50505050565b611be581612011565b82525050565b611bf481612011565b82525050565b6000611c0582611a6f565b9150819050919050565b6000602082019050611c2460008301846118c6565b92915050565b6000606082019050611c3f60008301866118c6565b611c4c60208301856118c6565b611c596040830184611beb565b949350505050565b60006020820190508181036000830152611c7a81611911565b9050919050565b60006020820190508181036000830152611c9a81611934565b9050919050565b60006020820190508181036000830152611cba81611957565b9050919050565b60006020820190508181036000830152611cda8161197a565b9050919050565b60006020820190508181036000830152611cfa8161199d565b9050919050565b60006020820190508181036000830152611d1a816119c0565b9050919050565b60006020820190508181036000830152611d3a816119e3565b9050919050565b60006020820190508181036000830152611d5a81611a06565b9050919050565b60006020820190508181036000830152611d7a81611a29565b9050919050565b60006020820190508181036000830152611d9a81611a4c565b9050919050565b60006020820190508181036000830152611dba81611a92565b9050919050565b60006020820190508181036000830152611dda81611ab5565b9050919050565b60006020820190508181036000830152611dfa81611ad8565b9050919050565b600061016082019050611e176000830184611afb565b92915050565b6000602082019050611e326000830184611beb565b92915050565b600061016082019050611e4e600083018e611beb565b611e5b602083018d611902565b611e68604083018c6118a8565b611e75606083018b6118c6565b611e82608083018a611beb565b611e8f60a0830189611beb565b611e9c60c08301886118e4565b611ea960e08301876118e4565b611eb76101008301866118e4565b611ec5610120830185611beb565b611ed3610140830184611beb565b9c9b505050505050505050505050565b600081905092915050565b600082825260208201905092915050565b6000611f0a82612011565b9150611f1583612011565b9250827fffffffffffffffffffffffffffffffffffffffffffffffffffffffffffffffff03821115611f4a57611f4961203f565b5b828201905092915050565b6000611f6082612011565b9150611f6b83612011565b9250817fffffffffffffffffffffffffffffffffffffffffffffffffffffffffffffffff0483118215151615611fa457611fa361203f565b5b828202905092915050565b6000611fba82611ff1565b9050919050565b6000611fcc82611ff1565b9050919050565b60008115159050919050565b6000611fea82611faf565b9050919050565b600073ffffffffffffffffffffffffffffffffffffffff82169050919050565b6000819050919050565b60006120268261202d565b9050919050565b600061203882611ff1565b9050919050565b7f4e487b7100000000000000000000000000000000000000000000000000000000600052601160045260246000fd5b7f50726963652073686f756c642062652067726561746572207468616e207a657260008201527f6f00000000000000000000000000000000000000000000000000000000000000602082015250565b7f5072696365206d7573742062652067726561746572207468616e207a65726f00600082015250565b7f4f776e61626c653a206e6577206f776e657220697320746865207a65726f206160008201527f6464726573730000000000000000000000000000000000000000000000000000602082015250565b7f4661696c656420746f207769746864726177204d617469630000000000000000600082015250565b7f546865204e46542069732072656e746564000000000000000000000000000000600082015250565b7f4e6f7420666f722073616c650000000000000000000000000000000000000000600082015250565b7f596f752063616e27742072656e7420796f7572204e4654000000000000000000600082015250565b7f4f776e61626c653a2063616c6c6572206973206e6f7420746865206f776e6572600082015250565b7f52656e7420686173206e6f742065787069726564000000000000000000000000600082015250565b7f4e6f7420666f722072656e740000000000000000000000000000000000000000600082015250565b50565b7f596f752063616e27742062757920796f7572204e465400000000000000000000600082015250565b7f4e465420646f6573206e6f742065786973740000000000000000000000000000600082015250565b7f4e6f7420617574686f72697a6564000000000000000000000000000000000000600082015250565b6122db81611faf565b81146122e657600080fd5b50565b6122f281611fdf565b81146122fd57600080fd5b50565b61230981612011565b811461231457600080fd5b5056fea26469706673582212207ae4b674e4b167def32650f236b2272ead8f0fc6dbca36b6e7bb7f2e5ca0bc8e64736f6c63430008040033",
  "linkReferences": {},
  "deployedLinkReferences": {}
}